{
  "_format": "hh-sol-artifact-1",
  "contractName": "Gallery",
  "sourceName": "contracts/Gallery.sol",
  "abi": [
    {
      "inputs": [],
      "stateMutability": "nonpayable",
      "type": "constructor"
    },
    {
      "anonymous": false,
      "inputs": [
        {
          "indexed": false,
          "internalType": "address",
          "name": "_newAdmin",
          "type": "address"
        }
      ],
      "name": "AdminCreated",
      "type": "event"
    },
    {
      "anonymous": false,
      "inputs": [
        {
          "indexed": true,
          "internalType": "uint256",
          "name": "userId",
          "type": "uint256"
        },
        {
          "indexed": false,
          "internalType": "string",
          "name": "userName",
          "type": "string"
        },
        {
          "indexed": false,
          "internalType": "address",
          "name": "userAd",
          "type": "address"
        }
      ],
      "name": "NewUserCreated",
      "type": "event"
    },
    {
      "inputs": [
        {
          "internalType": "uint256",
          "name": "_galleryId",
          "type": "uint256"
        }
      ],
      "name": "accessGallery",
      "outputs": [],
      "stateMutability": "nonpayable",
      "type": "function"
    },
    {
      "inputs": [
        {
          "internalType": "address",
          "name": "_address",
          "type": "address"
        }
      ],
      "name": "addDeveloper",
      "outputs": [],
      "stateMutability": "nonpayable",
      "type": "function"
    },
    {
      "inputs": [
        {
          "internalType": "uint256",
          "name": "_stTimestamp",
          "type": "uint256"
        },
        {
          "internalType": "uint256",
          "name": "_enTimestamp",
          "type": "uint256"
        },
        {
          "internalType": "uint72",
          "name": "_ticketPrice",
          "type": "uint72"
        },
        {
          "internalType": "uint72",
          "name": "_ticketNo",
          "type": "uint72"
        },
        {
          "internalType": "string[]",
          "name": "_tokenUris",
          "type": "string[]"
        },
        {
          "internalType": "string",
          "name": "_accessTokenUri",
          "type": "string"
        },
        {
          "internalType": "address payable",
          "name": "_creator",
          "type": "address"
        }
      ],
      "name": "createGalleryCollection",
      "outputs": [],
      "stateMutability": "nonpayable",
      "type": "function"
    },
    {
      "inputs": [
        {
          "internalType": "string",
          "name": "_userName",
          "type": "string"
        }
      ],
      "name": "createUser",
      "outputs": [],
      "stateMutability": "nonpayable",
      "type": "function"
    },
    {
      "inputs": [
        {
          "internalType": "uint256",
          "name": "_galleryId",
          "type": "uint256"
        }
      ],
      "name": "fetchGallery",
      "outputs": [
        {
          "components": [
            {
              "internalType": "uint256",
              "name": "galleryId",
              "type": "uint256"
            },
            {
              "internalType": "uint256",
              "name": "itemId",
              "type": "uint256"
            },
            {
              "internalType": "string",
              "name": "tokenUri",
              "type": "string"
            }
          ],
          "internalType": "struct Gallery.GalleryItem[]",
          "name": "",
          "type": "tuple[]"
        }
      ],
      "stateMutability": "view",
      "type": "function"
    },
    {
      "inputs": [
        {
          "internalType": "address",
          "name": "_newAdmin",
          "type": "address"
        }
      ],
      "name": "setAdmin",
      "outputs": [],
      "stateMutability": "nonpayable",
      "type": "function"
    },
    {
      "inputs": [
        {
          "internalType": "address",
          "name": "_tokenContract",
          "type": "address"
        }
      ],
      "name": "setTokenContract",
      "outputs": [],
      "stateMutability": "nonpayable",
      "type": "function"
    },
    {
      "inputs": [
        {
          "internalType": "uint256",
          "name": "_galleryId",
          "type": "uint256"
        }
      ],
      "name": "transferFunds",
      "outputs": [],
      "stateMutability": "payable",
      "type": "function"
    },
    {
      "inputs": [
        {
          "internalType": "uint256",
          "name": "_galleryId",
          "type": "uint256"
        }
      ],
      "name": "transferTicket",
      "outputs": [],
      "stateMutability": "payable",
      "type": "function"
    },
    {
      "inputs": [
        {
          "internalType": "uint256",
          "name": "",
          "type": "uint256"
        }
      ],
      "name": "user",
      "outputs": [
        {
          "internalType": "uint256",
          "name": "userId",
          "type": "uint256"
        },
        {
          "internalType": "string",
          "name": "userName",
          "type": "string"
        },
        {
          "internalType": "address payable",
          "name": "userAd",
          "type": "address"
        }
      ],
      "stateMutability": "view",
      "type": "function"
    }
  ],
  "bytecode": "0x608060405234801561001057600080fd5b5060016000819055506002339080600181540180825580915050600190039060005260206000200160009091909190916101000a81548173ffffffffffffffffffffffffffffffffffffffff021916908373ffffffffffffffffffffffffffffffffffffffff16021790555033600660006101000a81548173ffffffffffffffffffffffffffffffffffffffff021916908373ffffffffffffffffffffffffffffffffffffffff160217905550612e21806100cc6000396000f3fe6080604052600436106100915760003560e01c8063553275be11610059578063553275be14610149578063704b6c0214610188578063800a61c1146101b1578063841a8277146101ee578063bbcd5bbe1461021757610091565b8063133ae30b146100965780631d8f817d146100b257806322fbf1e8146100ce57806339c78346146100f7578063507ffba514610120575b600080fd5b6100b060048036038101906100ab9190611f7f565b610240565b005b6100cc60048036038101906100c79190611f7f565b610424565b005b3480156100da57600080fd5b506100f560048036038101906100f09190611f15565b610945565b005b34801561010357600080fd5b5061011e60048036038101906101199190611f7f565b6109f2565b005b34801561012c57600080fd5b5061014760048036038101906101429190611f3e565b610e1b565b005b34801561015557600080fd5b50610170600480360381019061016b9190611f7f565b610f51565b60405161017f9392919061268e565b60405180910390f35b34801561019457600080fd5b506101af60048036038101906101aa9190611f15565b611033565b005b3480156101bd57600080fd5b506101d860048036038101906101d39190611f7f565b611117565b6040516101e591906124dc565b60405180910390f35b3480156101fa57600080fd5b5061021560048036038101906102109190611fd1565b6113f5565b005b34801561022357600080fd5b5061023e60048036038101906102399190611f15565b611710565b005b6008818154811061027a577f4e487b7100000000000000000000000000000000000000000000000000000000600052603260045260246000fd5b90600052602060002090600702016002015442116102cd576040517f08c379a00000000000000000000000000000000000000000000000000000000081526004016102c4906125ae565b60405180910390fd5b600060088281548110610309577f4e487b7100000000000000000000000000000000000000000000000000000000600052603260045260246000fd5b906000526020600020906007020160060160009054906101000a900473ffffffffffffffffffffffffffffffffffffffff169050600060088381548110610379577f4e487b7100000000000000000000000000000000000000000000000000000000600052603260045260246000fd5b906000526020600020906007020160030160129054906101000a900468ffffffffffffffffff1690508173ffffffffffffffffffffffffffffffffffffffff166108fc670de0b6b3a7640000600a6002856103d491906127f6565b6103de91906127c5565b6103e891906127f6565b68ffffffffffffffffff169081150290604051600060405180830381858888f1935050505015801561041e573d6000803e3d6000fd5b50505050565b600061042e61179b565b15905060001515811515141561051357600060038054905011156105125760005b6003805490508110156105105760038181548110610496577f4e487b7100000000000000000000000000000000000000000000000000000000600052603260045260246000fd5b9060005260206000200160009054906101000a900473ffffffffffffffffffffffffffffffffffffffff1673ffffffffffffffffffffffffffffffffffffffff163373ffffffffffffffffffffffffffffffffffffffff1614156104fd5760019150610510565b808061050890612a08565b91505061044f565b505b5b6000151581151514156105e65760005b6002805490508110156105e4576002818154811061056a577f4e487b7100000000000000000000000000000000000000000000000000000000600052603260045260246000fd5b9060005260206000200160009054906101000a900473ffffffffffffffffffffffffffffffffffffffff1673ffffffffffffffffffffffffffffffffffffffff163373ffffffffffffffffffffffffffffffffffffffff1614156105d157600191506105e4565b80806105dc90612a08565b915050610523565b505b80610626576040517f08c379a000000000000000000000000000000000000000000000000000000000815260040161061d9061266e565b60405180910390fd5b60088281548110610660577f4e487b7100000000000000000000000000000000000000000000000000000000600052603260045260246000fd5b906000526020600020906007020160030160009054906101000a900468ffffffffffffffffff1668ffffffffffffffffff1634146106d3576040517f08c379a00000000000000000000000000000000000000000000000000000000081526004016106ca9061258e565b60405180910390fd5b600073ffffffffffffffffffffffffffffffffffffffff16600760009054906101000a900473ffffffffffffffffffffffffffffffffffffffff1673ffffffffffffffffffffffffffffffffffffffff161415610765576040517f08c379a000000000000000000000000000000000000000000000000000000000815260040161075c9061262e565b60405180910390fd5b42600883815481106107a0577f4e487b7100000000000000000000000000000000000000000000000000000000600052603260045260246000fd5b906000526020600020906007020160020154106107f2576040517f08c379a00000000000000000000000000000000000000000000000000000000081526004016107e99061264e565b60405180910390fd5b600760009054906101000a900473ffffffffffffffffffffffffffffffffffffffff1673ffffffffffffffffffffffffffffffffffffffff1663f242432a600660009054906101000a900473ffffffffffffffffffffffffffffffffffffffff16338560016040518563ffffffff1660e01b81526004016108769493929190612403565b600060405180830381600087803b15801561089057600080fd5b505af11580156108a4573d6000803e3d6000fd5b50505050600882815481106108e2577f4e487b7100000000000000000000000000000000000000000000000000000000600052603260045260246000fd5b9060005260206000209060070201600301601281819054906101000a900468ffffffffffffffffff168092919061091890612a7e565b91906101000a81548168ffffffffffffffffff021916908368ffffffffffffffffff160217905550505050565b61094d611894565b61098c576040517f08c379a0000000000000000000000000000000000000000000000000000000008152600401610983906125ce565b60405180910390fd5b6003819080600181540180825580915050600190039060005260206000200160009091909190916101000a81548173ffffffffffffffffffffffffffffffffffffffff021916908373ffffffffffffffffffffffffffffffffffffffff16021790555050565b60006109fc61179b565b159050600015158115151415610ae15760006003805490501115610ae05760005b600380549050811015610ade5760038181548110610a64577f4e487b7100000000000000000000000000000000000000000000000000000000600052603260045260246000fd5b9060005260206000200160009054906101000a900473ffffffffffffffffffffffffffffffffffffffff1673ffffffffffffffffffffffffffffffffffffffff163373ffffffffffffffffffffffffffffffffffffffff161415610acb5760019150610ade565b8080610ad690612a08565b915050610a1d565b505b5b600015158115151415610bb45760005b600280549050811015610bb25760028181548110610b38577f4e487b7100000000000000000000000000000000000000000000000000000000600052603260045260246000fd5b9060005260206000200160009054906101000a900473ffffffffffffffffffffffffffffffffffffffff1673ffffffffffffffffffffffffffffffffffffffff163373ffffffffffffffffffffffffffffffffffffffff161415610b9f5760019150610bb2565b8080610baa90612a08565b915050610af1565b505b80610bf4576040517f08c379a0000000000000000000000000000000000000000000000000000000008152600401610beb9061266e565b60405180910390fd5b6000600760009054906101000a900473ffffffffffffffffffffffffffffffffffffffff1673ffffffffffffffffffffffffffffffffffffffff1662fdd58e33856040518363ffffffff1660e01b8152600401610c529291906124b3565b60206040518083038186803b158015610c6a57600080fd5b505afa158015610c7e573d6000803e3d6000fd5b505050506040513d601f19601f82011682018060405250810190610ca29190611fa8565b11610ce2576040517f08c379a0000000000000000000000000000000000000000000000000000000008152600401610cd99061254e565b60405180910390fd5b60088281548110610d1c577f4e487b7100000000000000000000000000000000000000000000000000000000600052603260045260246000fd5b9060005260206000209060070201600201544210610d6f576040517f08c379a0000000000000000000000000000000000000000000000000000000008152600401610d669061256e565b60405180910390fd5b600760009054906101000a900473ffffffffffffffffffffffffffffffffffffffff1673ffffffffffffffffffffffffffffffffffffffff1663f242432a33738626f6940e2eb28930efb4cef49b2d1f2c9c11998560016040518563ffffffff1660e01b8152600401610de5949392919061245b565b600060405180830381600087803b158015610dff57600080fd5b505af1158015610e13573d6000803e3d6000fd5b505050505050565b610e2361179b565b610e2c57600080fd5b610e366001611971565b60046040518060600160405280610e4d6001611987565b81526020018381526020013373ffffffffffffffffffffffffffffffffffffffff168152509080600181540180825580915050600190039060005260206000209060030201600090919091909150600082015181600001556020820151816001019080519060200190610ec1929190611c0c565b5060408201518160020160006101000a81548173ffffffffffffffffffffffffffffffffffffffff021916908373ffffffffffffffffffffffffffffffffffffffff1602179055505050610f156001611987565b7f8985a38dd39c6c9ec6e37c1d9ab7f03244a99e621a517fe1ac4afc72ed32d3f58233604051610f469291906124fe565b60405180910390a250565b60048181548110610f6157600080fd5b9060005260206000209060030201600091509050806000015490806001018054610f8a90612979565b80601f0160208091040260200160405190810160405280929190818152602001828054610fb690612979565b80156110035780601f10610fd857610100808354040283529160200191611003565b820191906000526020600020905b815481529060010190602001808311610fe657829003601f168201915b5050505050908060020160009054906101000a900473ffffffffffffffffffffffffffffffffffffffff16905083565b61103b611894565b61107a576040517f08c379a0000000000000000000000000000000000000000000000000000000008152600401611071906125ce565b60405180910390fd5b6002819080600181540180825580915050600190039060005260206000200160009091909190916101000a81548173ffffffffffffffffffffffffffffffffffffffff021916908373ffffffffffffffffffffffffffffffffffffffff1602179055507f068138ab5baa0a8a7aadb0e73d78b0b40417344c7bba0f4387479260cc462d668160405161110c91906123e8565b60405180910390a150565b606060006009805490501161112b57600080fd5b6000805b6009805490508110156111b1578360098281548110611177577f4e487b7100000000000000000000000000000000000000000000000000000000600052603260045260246000fd5b906000526020600020906003020160000154141561119e57818061119a90612a08565b9250505b80806111a990612a08565b91505061112f565b5060008167ffffffffffffffff8111156111f4577f4e487b7100000000000000000000000000000000000000000000000000000000600052604160045260246000fd5b60405190808252806020026020018201604052801561122d57816020015b61121a611c92565b8152602001906001900390816112125790505b50905060005b6009805490508110156113ea57846009828154811061127b577f4e487b7100000000000000000000000000000000000000000000000000000000600052603260045260246000fd5b90600052602060002090600302016000015414156113d7576000600982815481106112cf577f4e487b7100000000000000000000000000000000000000000000000000000000600052603260045260246000fd5b9060005260206000209060030201905080604051806060016040529081600082015481526020016001820154815260200160028201805461130f90612979565b80601f016020809104026020016040519081016040528092919081815260200182805461133b90612979565b80156113885780601f1061135d57610100808354040283529160200191611388565b820191906000526020600020905b81548152906001019060200180831161136b57829003601f168201915b5050505050815250508383815181106113ca577f4e487b7100000000000000000000000000000000000000000000000000000000600052603260045260246000fd5b6020026020010181905250505b80806113e290612a08565b915050611233565b508092505050919050565b6113fd611894565b61143c576040517f08c379a0000000000000000000000000000000000000000000000000000000008152600401611433906125ce565b60405180910390fd5b600f83511115611481576040517f08c379a00000000000000000000000000000000000000000000000000000000081526004016114789061260e565b60405180910390fd5b60008351116114c5576040517f08c379a00000000000000000000000000000000000000000000000000000000081526004016114bc9061252e565b60405180910390fd5b60c88468ffffffffffffffffff161115611514576040517f08c379a000000000000000000000000000000000000000000000000000000000815260040161150b906125ee565b60405180910390fd5b600860405180610120016040528061152c6005611987565b81526020018981526020018881526020018768ffffffffffffffffff1681526020018668ffffffffffffffffff168152602001600068ffffffffffffffffff1681526020018581526020018481526020018373ffffffffffffffffffffffffffffffffffffffff16815250908060018154018082558091505060019003906000526020600020906007020160009091909190915060008201518160000155602082015181600101556040820151816002015560608201518160030160006101000a81548168ffffffffffffffffff021916908368ffffffffffffffffff16021790555060808201518160030160096101000a81548168ffffffffffffffffff021916908368ffffffffffffffffff16021790555060a08201518160030160126101000a81548168ffffffffffffffffff021916908368ffffffffffffffffff16021790555060c082015181600401908051906020019061168d929190611cb3565b5060e08201518160050190805190602001906116aa929190611c0c565b506101008201518160060160006101000a81548173ffffffffffffffffffffffffffffffffffffffff021916908373ffffffffffffffffffffffffffffffffffffffff16021790555050506116ff6005611971565b611707611995565b50505050505050565b611718611894565b611757576040517f08c379a000000000000000000000000000000000000000000000000000000000815260040161174e906125ce565b60405180910390fd5b80600760006101000a81548173ffffffffffffffffffffffffffffffffffffffff021916908373ffffffffffffffffffffffffffffffffffffffff16021790555050565b60008060048054905014156117b35760019050611891565b60005b6004805490508163ffffffff16101561188b5760048163ffffffff1681548110611809577f4e487b7100000000000000000000000000000000000000000000000000000000600052603260045260246000fd5b906000526020600020906003020160020160009054906101000a900473ffffffffffffffffffffffffffffffffffffffff1673ffffffffffffffffffffffffffffffffffffffff163373ffffffffffffffffffffffffffffffffffffffff161415611878576000915050611891565b808061188390612a51565b9150506117b6565b50600190505b90565b600080600090505b6002805490508162ffffff1610156119685760028162ffffff16815481106118ed577f4e487b7100000000000000000000000000000000000000000000000000000000600052603260045260246000fd5b9060005260206000200160009054906101000a900473ffffffffffffffffffffffffffffffffffffffff1673ffffffffffffffffffffffffffffffffffffffff163373ffffffffffffffffffffffffffffffffffffffff16141561195557600191505061196e565b8080611960906129dc565b91505061189c565b50600090505b90565b6001816000016000828254019250508190555050565b600081600001549050919050565b61199d611894565b6119dc576040517f08c379a00000000000000000000000000000000000000000000000000000000081526004016119d3906125ce565b60405180910390fd5b60005b600860016008805490506119f39190612839565b81548110611a2a577f4e487b7100000000000000000000000000000000000000000000000000000000600052603260045260246000fd5b906000526020600020906007020160040180549050811015611c0957600960405180606001604052806001600880549050611a659190612839565b815260200183815260200160086001600880549050611a849190612839565b81548110611abb577f4e487b7100000000000000000000000000000000000000000000000000000000600052603260045260246000fd5b90600052602060002090600702016004018481548110611b04577f4e487b7100000000000000000000000000000000000000000000000000000000600052603260045260246000fd5b906000526020600020018054611b1990612979565b80601f0160208091040260200160405190810160405280929190818152602001828054611b4590612979565b8015611b925780601f10611b6757610100808354040283529160200191611b92565b820191906000526020600020905b815481529060010190602001808311611b7557829003601f168201915b5050505050815250908060018154018082558091505060019003906000526020600020906003020160009091909190915060008201518160000155602082015181600101556040820151816002019080519060200190611bf3929190611c0c565b5050508080611c0190612a08565b9150506119df565b50565b828054611c1890612979565b90600052602060002090601f016020900481019282611c3a5760008555611c81565b82601f10611c5357805160ff1916838001178555611c81565b82800160010185558215611c81579182015b82811115611c80578251825591602001919060010190611c65565b5b509050611c8e9190611d13565b5090565b60405180606001604052806000815260200160008152602001606081525090565b828054828255906000526020600020908101928215611d02579160200282015b82811115611d01578251829080519060200190611cf1929190611c0c565b5091602001919060010190611cd3565b5b509050611d0f9190611d30565b5090565b5b80821115611d2c576000816000905550600101611d14565b5090565b5b80821115611d505760008181611d479190611d54565b50600101611d31565b5090565b508054611d6090612979565b6000825580601f10611d725750611d91565b601f016020900490600052602060002090810190611d909190611d13565b5b50565b6000611da7611da2846126f1565b6126cc565b90508083825260208201905082856020860282011115611dc657600080fd5b60005b85811015611e1057813567ffffffffffffffff811115611de857600080fd5b808601611df58982611eac565b85526020850194506020840193505050600181019050611dc9565b5050509392505050565b6000611e2d611e288461271d565b6126cc565b905082815260208101848484011115611e4557600080fd5b611e50848285612937565b509392505050565b600081359050611e6781612d8f565b92915050565b600081359050611e7c81612da6565b92915050565b600082601f830112611e9357600080fd5b8135611ea3848260208601611d94565b91505092915050565b600082601f830112611ebd57600080fd5b8135611ecd848260208601611e1a565b91505092915050565b600081359050611ee581612dbd565b92915050565b600081519050611efa81612dbd565b92915050565b600081359050611f0f81612dd4565b92915050565b600060208284031215611f2757600080fd5b6000611f3584828501611e58565b91505092915050565b600060208284031215611f5057600080fd5b600082013567ffffffffffffffff811115611f6a57600080fd5b611f7684828501611eac565b91505092915050565b600060208284031215611f9157600080fd5b6000611f9f84828501611ed6565b91505092915050565b600060208284031215611fba57600080fd5b6000611fc884828501611eeb565b91505092915050565b600080600080600080600060e0888a031215611fec57600080fd5b6000611ffa8a828b01611ed6565b975050602061200b8a828b01611ed6565b965050604061201c8a828b01611f00565b955050606061202d8a828b01611f00565b945050608088013567ffffffffffffffff81111561204a57600080fd5b6120568a828b01611e82565b93505060a088013567ffffffffffffffff81111561207357600080fd5b61207f8a828b01611eac565b92505060c06120908a828b01611e6d565b91505092959891949750929550565b60006120ab838361237a565b905092915050565b6120bc816128ef565b82525050565b6120cb8161287f565b82525050565b6120da8161286d565b82525050565b60006120eb8261275e565b6120f58185612781565b9350836020820285016121078561274e565b8060005b858110156121435784840389528151612124858261209f565b945061212f83612774565b925060208a0199505060018101905061210b565b50829750879550505050505092915050565b61215e81612901565b82525050565b600061216f82612769565b61217981856127a3565b9350612189818560208601612946565b61219281612b6c565b840191505092915050565b60006121a882612769565b6121b281856127b4565b93506121c2818560208601612946565b6121cb81612b6c565b840191505092915050565b60006121e36013836127b4565b91506121ee82612b7d565b602082019050919050565b60006122066012836127b4565b915061221182612ba6565b602082019050919050565b60006122296029836127b4565b915061223482612bcf565b604082019050919050565b600061224c600f836127b4565b915061225782612c1e565b602082019050919050565b600061226f6010836127b4565b915061227a82612c47565b602082019050919050565b60006122926009836127b4565b915061229d82612c70565b602082019050919050565b60006122b5600e836127b4565b91506122c082612c99565b602082019050919050565b60006122d86017836127b4565b91506122e382612cc2565b602082019050919050565b60006122fb600083612792565b915061230682612ceb565b600082019050919050565b600061231e6022836127b4565b915061232982612cee565b604082019050919050565b6000612341600d836127b4565b915061234c82612d3d565b602082019050919050565b60006123646020836127b4565b915061236f82612d66565b602082019050919050565b600060608301600083015161239260008601826123ca565b5060208301516123a560208601826123ca565b50604083015184820360408601526123bd8282612164565b9150508091505092915050565b6123d3816128c0565b82525050565b6123e2816128c0565b82525050565b60006020820190506123fd60008301846120d1565b92915050565b600060a08201905061241860008301876120b3565b61242560208301866120d1565b61243260408301856123d9565b61243f6060830184612155565b8181036080830152612450816122ee565b905095945050505050565b600060a08201905061247060008301876120d1565b61247d60208301866120d1565b61248a60408301856123d9565b6124976060830184612155565b81810360808301526124a8816122ee565b905095945050505050565b60006040820190506124c860008301856120d1565b6124d560208301846123d9565b9392505050565b600060208201905081810360008301526124f681846120e0565b905092915050565b60006040820190508181036000830152612518818561219d565b905061252760208301846120d1565b9392505050565b60006020820190508181036000830152612547816121d6565b9050919050565b60006020820190508181036000830152612567816121f9565b9050919050565b600060208201905081810360008301526125878161221c565b9050919050565b600060208201905081810360008301526125a78161223f565b9050919050565b600060208201905081810360008301526125c781612262565b9050919050565b600060208201905081810360008301526125e781612285565b9050919050565b60006020820190508181036000830152612607816122a8565b9050919050565b60006020820190508181036000830152612627816122cb565b9050919050565b6000602082019050818103600083015261264781612311565b9050919050565b6000602082019050818103600083015261266781612334565b9050919050565b6000602082019050818103600083015261268781612357565b9050919050565b60006060820190506126a360008301866123d9565b81810360208301526126b5818561219d565b90506126c460408301846120c2565b949350505050565b60006126d66126e7565b90506126e282826129ab565b919050565b6000604051905090565b600067ffffffffffffffff82111561270c5761270b612b3d565b5b602082029050602081019050919050565b600067ffffffffffffffff82111561273857612737612b3d565b5b61274182612b6c565b9050602081019050919050565b6000819050602082019050919050565b600081519050919050565b600081519050919050565b6000602082019050919050565b600082825260208201905092915050565b600082825260208201905092915050565b600082825260208201905092915050565b600082825260208201905092915050565b60006127d0826128da565b91506127db836128da565b9250826127eb576127ea612adf565b5b828204905092915050565b6000612801826128da565b915061280c836128da565b92508168ffffffffffffffffff048311821515161561282e5761282d612ab0565b5b828202905092915050565b6000612844826128c0565b915061284f836128c0565b92508282101561286257612861612ab0565b5b828203905092915050565b600061287882612891565b9050919050565b600061288a82612891565b9050919050565b600073ffffffffffffffffffffffffffffffffffffffff82169050919050565b600062ffffff82169050919050565b6000819050919050565b600063ffffffff82169050919050565b600068ffffffffffffffffff82169050919050565b60006128fa82612913565b9050919050565b600061290c826128c0565b9050919050565b600061291e82612925565b9050919050565b600061293082612891565b9050919050565b82818337600083830152505050565b60005b83811015612964578082015181840152602081019050612949565b83811115612973576000848401525b50505050565b6000600282049050600182168061299157607f821691505b602082108114156129a5576129a4612b0e565b5b50919050565b6129b482612b6c565b810181811067ffffffffffffffff821117156129d3576129d2612b3d565b5b80604052505050565b60006129e7826128b1565b915062ffffff8214156129fd576129fc612ab0565b5b600182019050919050565b6000612a13826128c0565b91507fffffffffffffffffffffffffffffffffffffffffffffffffffffffffffffffff821415612a4657612a45612ab0565b5b600182019050919050565b6000612a5c826128ca565b915063ffffffff821415612a7357612a72612ab0565b5b600182019050919050565b6000612a89826128da565b915068ffffffffffffffffff821415612aa557612aa4612ab0565b5b600182019050919050565b7f4e487b7100000000000000000000000000000000000000000000000000000000600052601160045260246000fd5b7f4e487b7100000000000000000000000000000000000000000000000000000000600052601260045260246000fd5b7f4e487b7100000000000000000000000000000000000000000000000000000000600052602260045260246000fd5b7f4e487b7100000000000000000000000000000000000000000000000000000000600052604160045260246000fd5b6000601f19601f8301169050919050565b7f496e76616c6964206e6f206f66206974656d7300000000000000000000000000600082015250565b7f4275792061207469636b65742066697273740000000000000000000000000000600082015250565b7f2047616c6c65727920656e6465642074686973207469636b657420697320757360008201527f656c657373206e6f770000000000000000000000000000000000000000000000602082015250565b7f4e6f742076616c69642070726963650000000000000000000000000000000000600082015250565b7f4e6f742066696e69736865642079657400000000000000000000000000000000600082015250565b7f4e6f742041646d696e0000000000000000000000000000000000000000000000600082015250565b7f4d61782032303020677565737473000000000000000000000000000000000000600082015250565b7f4d617820636f6c6c656374696f6e203135206974656d73000000000000000000600082015250565b50565b7f53657420546f6b656e277320436f6e747261637420616464726573732066697260008201527f7374000000000000000000000000000000000000000000000000000000000000602082015250565b7f47616c6c65727920656e64656400000000000000000000000000000000000000600082015250565b7f4e6f7420612075736572206f7220616e2061646d696e2f646576656c6f706572600082015250565b612d988161286d565b8114612da357600080fd5b50565b612daf8161287f565b8114612dba57600080fd5b50565b612dc6816128c0565b8114612dd157600080fd5b50565b612ddd816128da565b8114612de857600080fd5b5056fea26469706673582212204cb5018382efc04ea2fe9b36b28459c21b830f906604c4d38f1691c22b62b14064736f6c63430008040033",
  "linkReferences": {},
  "deployedLinkReferences": {}
}