{
  "_format": "hh-sol-artifact-1",
  "contractName": "Stuff",
  "sourceName": "contracts/Gallery.sol",
  "abi": [
    {
      "inputs": [],
      "stateMutability": "nonpayable",
      "type": "constructor"
    },
    {
      "anonymous": false,
      "inputs": [
        {
          "indexed": false,
          "internalType": "address",
          "name": "_newAdmin",
          "type": "address"
        }
      ],
      "name": "AdminCreated",
      "type": "event"
    },
    {
      "anonymous": false,
      "inputs": [
        {
          "indexed": true,
          "internalType": "uint256",
          "name": "userId",
          "type": "uint256"
        },
        {
          "indexed": false,
          "internalType": "string",
          "name": "userName",
          "type": "string"
        },
        {
          "indexed": false,
          "internalType": "address",
          "name": "userAd",
          "type": "address"
        }
      ],
      "name": "NewUserCreated",
      "type": "event"
    },
    {
      "inputs": [
        {
          "internalType": "address",
          "name": "_address",
          "type": "address"
        }
      ],
      "name": "addDeveloper",
      "outputs": [],
      "stateMutability": "nonpayable",
      "type": "function"
    },
    {
      "inputs": [
        {
          "internalType": "string",
          "name": "_userName",
          "type": "string"
        }
      ],
      "name": "createUser",
      "outputs": [],
      "stateMutability": "nonpayable",
      "type": "function"
    },
    {
      "inputs": [
        {
          "internalType": "address",
          "name": "_newAdmin",
          "type": "address"
        }
      ],
      "name": "setAdmin",
      "outputs": [],
      "stateMutability": "nonpayable",
      "type": "function"
    },
    {
      "inputs": [
        {
          "internalType": "uint256",
          "name": "",
          "type": "uint256"
        }
      ],
      "name": "user",
      "outputs": [
        {
          "internalType": "uint256",
          "name": "userId",
          "type": "uint256"
        },
        {
          "internalType": "string",
          "name": "userName",
          "type": "string"
        },
        {
          "internalType": "address payable",
          "name": "userAd",
          "type": "address"
        }
      ],
      "stateMutability": "view",
      "type": "function"
    }
  ],
  "bytecode": "0x608060405234801561001057600080fd5b506001339080600181540180825580915050600190039060005260206000200160009091909190916101000a81548173ffffffffffffffffffffffffffffffffffffffff021916908373ffffffffffffffffffffffffffffffffffffffff160217905550610c7c806100836000396000f3fe608060405234801561001057600080fd5b506004361061004c5760003560e01c806322fbf1e814610051578063507ffba51461006d578063553275be14610089578063704b6c02146100bb575b600080fd5b61006b600480360381019061006691906107af565b6100d7565b005b610087600480360381019061008291906107d8565b610184565b005b6100a3600480360381019061009e9190610819565b6102ba565b6040516100b293929190610936565b60405180910390f35b6100d560048036038101906100d091906107af565b61039c565b005b6100df610480565b61011e576040517f08c379a000000000000000000000000000000000000000000000000000000000815260040161011590610916565b60405180910390fd5b6002819080600181540180825580915050600190039060005260206000200160009091909190916101000a81548173ffffffffffffffffffffffffffffffffffffffff021916908373ffffffffffffffffffffffffffffffffffffffff16021790555050565b61018c61055d565b61019557600080fd5b61019f6000610656565b600360405180606001604052806101b6600061066c565b81526020018381526020013373ffffffffffffffffffffffffffffffffffffffff16815250908060018154018082558091505060019003906000526020600020906003020160009091909190915060008201518160000155602082015181600101908051906020019061022a92919061067a565b5060408201518160020160006101000a81548173ffffffffffffffffffffffffffffffffffffffff021916908373ffffffffffffffffffffffffffffffffffffffff160217905550505061027e600061066c565b7f8985a38dd39c6c9ec6e37c1d9ab7f03244a99e621a517fe1ac4afc72ed32d3f582336040516102af9291906108e6565b60405180910390a250565b600381815481106102ca57600080fd5b90600052602060002090600302016000915090508060000154908060010180546102f390610a95565b80601f016020809104026020016040519081016040528092919081815260200182805461031f90610a95565b801561036c5780601f106103415761010080835404028352916020019161036c565b820191906000526020600020905b81548152906001019060200180831161034f57829003601f168201915b5050505050908060020160009054906101000a900473ffffffffffffffffffffffffffffffffffffffff16905083565b6103a4610480565b6103e3576040517f08c379a00000000000000000000000000000000000000000000000000000000081526004016103da90610916565b60405180910390fd5b6001819080600181540180825580915050600190039060005260206000200160009091909190916101000a81548173ffffffffffffffffffffffffffffffffffffffff021916908373ffffffffffffffffffffffffffffffffffffffff1602179055507f068138ab5baa0a8a7aadb0e73d78b0b40417344c7bba0f4387479260cc462d668160405161047591906108cb565b60405180910390a150565b600080600090505b6001805490508162ffffff1610156105545760018162ffffff16815481106104d9577f4e487b7100000000000000000000000000000000000000000000000000000000600052603260045260246000fd5b9060005260206000200160009054906101000a900473ffffffffffffffffffffffffffffffffffffffff1673ffffffffffffffffffffffffffffffffffffffff163373ffffffffffffffffffffffffffffffffffffffff16141561054157600191505061055a565b808061054c90610af8565b915050610488565b50600090505b90565b60008060038054905014156105755760019050610653565b60005b6003805490508163ffffffff16101561064d5760038163ffffffff16815481106105cb577f4e487b7100000000000000000000000000000000000000000000000000000000600052603260045260246000fd5b906000526020600020906003020160020160009054906101000a900473ffffffffffffffffffffffffffffffffffffffff1673ffffffffffffffffffffffffffffffffffffffff163373ffffffffffffffffffffffffffffffffffffffff16141561063a576000915050610653565b808061064590610b24565b915050610578565b50600190505b90565b6001816000016000828254019250508190555050565b600081600001549050919050565b82805461068690610a95565b90600052602060002090601f0160209004810192826106a857600085556106ef565b82601f106106c157805160ff19168380011785556106ef565b828001600101855582156106ef579182015b828111156106ee5782518255916020019190600101906106d3565b5b5090506106fc9190610700565b5090565b5b80821115610719576000816000905550600101610701565b5090565b600061073061072b84610999565b610974565b90508281526020810184848401111561074857600080fd5b610753848285610a53565b509392505050565b60008135905061076a81610c18565b92915050565b600082601f83011261078157600080fd5b813561079184826020860161071d565b91505092915050565b6000813590506107a981610c2f565b92915050565b6000602082840312156107c157600080fd5b60006107cf8482850161075b565b91505092915050565b6000602082840312156107ea57600080fd5b600082013567ffffffffffffffff81111561080457600080fd5b61081084828501610770565b91505092915050565b60006020828403121561082b57600080fd5b60006108398482850161079a565b91505092915050565b61084b816109f8565b82525050565b61085a816109e6565b82525050565b600061086b826109ca565b61087581856109d5565b9350610885818560208601610a62565b61088e81610bde565b840191505092915050565b60006108a66009836109d5565b91506108b182610bef565b602082019050919050565b6108c581610a39565b82525050565b60006020820190506108e06000830184610851565b92915050565b600060408201905081810360008301526109008185610860565b905061090f6020830184610851565b9392505050565b6000602082019050818103600083015261092f81610899565b9050919050565b600060608201905061094b60008301866108bc565b818103602083015261095d8185610860565b905061096c6040830184610842565b949350505050565b600061097e61098f565b905061098a8282610ac7565b919050565b6000604051905090565b600067ffffffffffffffff8211156109b4576109b3610baf565b5b6109bd82610bde565b9050602081019050919050565b600081519050919050565b600082825260208201905092915050565b60006109f182610a0a565b9050919050565b6000610a0382610a0a565b9050919050565b600073ffffffffffffffffffffffffffffffffffffffff82169050919050565b600062ffffff82169050919050565b6000819050919050565b600063ffffffff82169050919050565b82818337600083830152505050565b60005b83811015610a80578082015181840152602081019050610a65565b83811115610a8f576000848401525b50505050565b60006002820490506001821680610aad57607f821691505b60208210811415610ac157610ac0610b80565b5b50919050565b610ad082610bde565b810181811067ffffffffffffffff82111715610aef57610aee610baf565b5b80604052505050565b6000610b0382610a2a565b915062ffffff821415610b1957610b18610b51565b5b600182019050919050565b6000610b2f82610a43565b915063ffffffff821415610b4657610b45610b51565b5b600182019050919050565b7f4e487b7100000000000000000000000000000000000000000000000000000000600052601160045260246000fd5b7f4e487b7100000000000000000000000000000000000000000000000000000000600052602260045260246000fd5b7f4e487b7100000000000000000000000000000000000000000000000000000000600052604160045260246000fd5b6000601f19601f8301169050919050565b7f4e6f742041646d696e0000000000000000000000000000000000000000000000600082015250565b610c21816109e6565b8114610c2c57600080fd5b50565b610c3881610a39565b8114610c4357600080fd5b5056fea2646970667358221220a4925dad44bf20a67e67151fab6f5cdf2db8854156a65b8b6c3d4012d69e474364736f6c63430008040033",
  "linkReferences": {},
  "deployedLinkReferences": {}
}