{
  "_format": "hh-sol-artifact-1",
  "contractName": "AccessTokens",
  "sourceName": "contracts/AccessTokens.sol",
  "abi": [
    {
      "inputs": [
        {
          "internalType": "address",
          "name": "_marketAdress",
          "type": "address"
        }
      ],
      "stateMutability": "nonpayable",
      "type": "constructor"
    },
    {
      "anonymous": false,
      "inputs": [
        {
          "indexed": true,
          "internalType": "address",
          "name": "account",
          "type": "address"
        },
        {
          "indexed": true,
          "internalType": "address",
          "name": "operator",
          "type": "address"
        },
        {
          "indexed": false,
          "internalType": "bool",
          "name": "approved",
          "type": "bool"
        }
      ],
      "name": "ApprovalForAll",
      "type": "event"
    },
    {
      "anonymous": false,
      "inputs": [
        {
          "indexed": true,
          "internalType": "address",
          "name": "operator",
          "type": "address"
        },
        {
          "indexed": true,
          "internalType": "address",
          "name": "from",
          "type": "address"
        },
        {
          "indexed": true,
          "internalType": "address",
          "name": "to",
          "type": "address"
        },
        {
          "indexed": false,
          "internalType": "uint256[]",
          "name": "ids",
          "type": "uint256[]"
        },
        {
          "indexed": false,
          "internalType": "uint256[]",
          "name": "values",
          "type": "uint256[]"
        }
      ],
      "name": "TransferBatch",
      "type": "event"
    },
    {
      "anonymous": false,
      "inputs": [
        {
          "indexed": true,
          "internalType": "address",
          "name": "operator",
          "type": "address"
        },
        {
          "indexed": true,
          "internalType": "address",
          "name": "from",
          "type": "address"
        },
        {
          "indexed": true,
          "internalType": "address",
          "name": "to",
          "type": "address"
        },
        {
          "indexed": false,
          "internalType": "uint256",
          "name": "id",
          "type": "uint256"
        },
        {
          "indexed": false,
          "internalType": "uint256",
          "name": "value",
          "type": "uint256"
        }
      ],
      "name": "TransferSingle",
      "type": "event"
    },
    {
      "anonymous": false,
      "inputs": [
        {
          "indexed": false,
          "internalType": "string",
          "name": "value",
          "type": "string"
        },
        {
          "indexed": true,
          "internalType": "uint256",
          "name": "id",
          "type": "uint256"
        }
      ],
      "name": "URI",
      "type": "event"
    },
    {
      "inputs": [
        {
          "internalType": "address",
          "name": "account",
          "type": "address"
        },
        {
          "internalType": "uint256",
          "name": "id",
          "type": "uint256"
        }
      ],
      "name": "balanceOf",
      "outputs": [
        {
          "internalType": "uint256",
          "name": "",
          "type": "uint256"
        }
      ],
      "stateMutability": "view",
      "type": "function"
    },
    {
      "inputs": [
        {
          "internalType": "address[]",
          "name": "accounts",
          "type": "address[]"
        },
        {
          "internalType": "uint256[]",
          "name": "ids",
          "type": "uint256[]"
        }
      ],
      "name": "balanceOfBatch",
      "outputs": [
        {
          "internalType": "uint256[]",
          "name": "",
          "type": "uint256[]"
        }
      ],
      "stateMutability": "view",
      "type": "function"
    },
    {
      "inputs": [
        {
          "internalType": "uint256",
          "name": "_totalSupply",
          "type": "uint256"
        }
      ],
      "name": "createTickets",
      "outputs": [],
      "stateMutability": "nonpayable",
      "type": "function"
    },
    {
      "inputs": [
        {
          "internalType": "address",
          "name": "account",
          "type": "address"
        },
        {
          "internalType": "address",
          "name": "operator",
          "type": "address"
        }
      ],
      "name": "isApprovedForAll",
      "outputs": [
        {
          "internalType": "bool",
          "name": "",
          "type": "bool"
        }
      ],
      "stateMutability": "view",
      "type": "function"
    },
    {
      "inputs": [],
      "name": "reSetApproval",
      "outputs": [],
      "stateMutability": "nonpayable",
      "type": "function"
    },
    {
      "inputs": [
        {
          "internalType": "address",
          "name": "from",
          "type": "address"
        },
        {
          "internalType": "address",
          "name": "to",
          "type": "address"
        },
        {
          "internalType": "uint256[]",
          "name": "ids",
          "type": "uint256[]"
        },
        {
          "internalType": "uint256[]",
          "name": "amounts",
          "type": "uint256[]"
        },
        {
          "internalType": "bytes",
          "name": "data",
          "type": "bytes"
        }
      ],
      "name": "safeBatchTransferFrom",
      "outputs": [],
      "stateMutability": "nonpayable",
      "type": "function"
    },
    {
      "inputs": [
        {
          "internalType": "address",
          "name": "from",
          "type": "address"
        },
        {
          "internalType": "address",
          "name": "to",
          "type": "address"
        },
        {
          "internalType": "uint256",
          "name": "id",
          "type": "uint256"
        },
        {
          "internalType": "uint256",
          "name": "amount",
          "type": "uint256"
        },
        {
          "internalType": "bytes",
          "name": "data",
          "type": "bytes"
        }
      ],
      "name": "safeTransferFrom",
      "outputs": [],
      "stateMutability": "nonpayable",
      "type": "function"
    },
    {
      "inputs": [
        {
          "internalType": "address",
          "name": "operator",
          "type": "address"
        },
        {
          "internalType": "bool",
          "name": "approved",
          "type": "bool"
        }
      ],
      "name": "setApprovalForAll",
      "outputs": [],
      "stateMutability": "nonpayable",
      "type": "function"
    },
    {
      "inputs": [
        {
          "internalType": "bytes4",
          "name": "interfaceId",
          "type": "bytes4"
        }
      ],
      "name": "supportsInterface",
      "outputs": [
        {
          "internalType": "bool",
          "name": "",
          "type": "bool"
        }
      ],
      "stateMutability": "view",
      "type": "function"
    },
    {
      "inputs": [
        {
          "internalType": "uint256",
          "name": "",
          "type": "uint256"
        }
      ],
      "name": "uri",
      "outputs": [
        {
          "internalType": "string",
          "name": "",
          "type": "string"
        }
      ],
      "stateMutability": "view",
      "type": "function"
    }
  ],
  "bytecode": "0x60806040523480156200001157600080fd5b5060405162002d0938038062002d098339818101604052810190620000379190620001c5565b604051806020016040528060008152506200005881620000e260201b60201c565b5080600460006101000a81548173ffffffffffffffffffffffffffffffffffffffff021916908373ffffffffffffffffffffffffffffffffffffffff16021790555033600560006101000a81548173ffffffffffffffffffffffffffffffffffffffff021916908373ffffffffffffffffffffffffffffffffffffffff16021790555050620002a4565b8060029080519060200190620000fa929190620000fe565b5050565b8280546200010c9062000225565b90600052602060002090601f0160209004810192826200013057600085556200017c565b82601f106200014b57805160ff19168380011785556200017c565b828001600101855582156200017c579182015b828111156200017b5782518255916020019190600101906200015e565b5b5090506200018b91906200018f565b5090565b5b80821115620001aa57600081600090555060010162000190565b5090565b600081519050620001bf816200028a565b92915050565b600060208284031215620001d857600080fd5b6000620001e884828501620001ae565b91505092915050565b6000620001fe8262000205565b9050919050565b600073ffffffffffffffffffffffffffffffffffffffff82169050919050565b600060028204905060018216806200023e57607f821691505b602082108114156200025557620002546200025b565b5b50919050565b7f4e487b7100000000000000000000000000000000000000000000000000000000600052602260045260246000fd5b6200029581620001f1565b8114620002a157600080fd5b50565b612a5580620002b46000396000f3fe608060405234801561001057600080fd5b506004361061009d5760003560e01c80634e1273f4116100665780634e1273f414610158578063a22cb46514610188578063de86afc4146101a4578063e985e9c5146101c0578063f242432a146101f05761009d565b8062fdd58e146100a257806301ffc9a7146100d25780630e89341c146101025780632eb2c2d614610132578063412f06c41461014e575b600080fd5b6100bc60048036038101906100b79190611af4565b61020c565b6040516100c991906121b7565b60405180910390f35b6100ec60048036038101906100e79190611b9c565b6102d5565b6040516100f99190611ffa565b60405180910390f35b61011c60048036038101906101179190611bee565b6103b7565b6040516101299190612015565b60405180910390f35b61014c6004803603810190610147919061196a565b61044b565b005b6101566104ec565b005b610172600480360381019061016d9190611b30565b61051c565b60405161017f9190611fa1565b60405180910390f35b6101a2600480360381019061019d9190611ab8565b6106cd565b005b6101be60048036038101906101b99190611bee565b6106e3565b005b6101da60048036038101906101d5919061192e565b6107d2565b6040516101e79190611ffa565b60405180910390f35b61020a60048036038101906102059190611a29565b610866565b005b60008073ffffffffffffffffffffffffffffffffffffffff168373ffffffffffffffffffffffffffffffffffffffff16141561027d576040517f08c379a000000000000000000000000000000000000000000000000000000000815260040161027490612077565b60405180910390fd5b60008083815260200190815260200160002060008473ffffffffffffffffffffffffffffffffffffffff1673ffffffffffffffffffffffffffffffffffffffff16815260200190815260200160002054905092915050565b60007fd9b67a26000000000000000000000000000000000000000000000000000000007bffffffffffffffffffffffffffffffffffffffffffffffffffffffff1916827bffffffffffffffffffffffffffffffffffffffffffffffffffffffff191614806103a057507f0e89341c000000000000000000000000000000000000000000000000000000007bffffffffffffffffffffffffffffffffffffffffffffffffffffffff1916827bffffffffffffffffffffffffffffffffffffffffffffffffffffffff1916145b806103b057506103af82610907565b5b9050919050565b6060600280546103c690612426565b80601f01602080910402602001604051908101604052809291908181526020018280546103f290612426565b801561043f5780601f106104145761010080835404028352916020019161043f565b820191906000526020600020905b81548152906001019060200180831161042257829003601f168201915b50505050509050919050565b610453610971565b73ffffffffffffffffffffffffffffffffffffffff168573ffffffffffffffffffffffffffffffffffffffff161480610499575061049885610493610971565b6107d2565b5b6104d8576040517f08c379a00000000000000000000000000000000000000000000000000000000081526004016104cf906120f7565b60405180910390fd5b6104e58585858585610979565b5050505050565b61051a33600460009054906101000a900473ffffffffffffffffffffffffffffffffffffffff166001610cd9565b565b60608151835114610562576040517f08c379a000000000000000000000000000000000000000000000000000000000815260040161055990612157565b60405180910390fd5b6000835167ffffffffffffffff8111156105a5577f4e487b7100000000000000000000000000000000000000000000000000000000600052604160045260246000fd5b6040519080825280602002602001820160405280156105d35781602001602082028036833780820191505090505b50905060005b84518110156106c25761066c85828151811061061e577f4e487b7100000000000000000000000000000000000000000000000000000000600052603260045260246000fd5b602002602001015185838151811061065f577f4e487b7100000000000000000000000000000000000000000000000000000000600052603260045260246000fd5b602002602001015161020c565b8282815181106106a5577f4e487b7100000000000000000000000000000000000000000000000000000000600052603260045260246000fd5b602002602001018181525050806106bb90612489565b90506105d9565b508091505092915050565b6106df6106d8610971565b8383610cd9565b5050565b600560009054906101000a900473ffffffffffffffffffffffffffffffffffffffff1673ffffffffffffffffffffffffffffffffffffffff163373ffffffffffffffffffffffffffffffffffffffff1614610773576040517f08c379a000000000000000000000000000000000000000000000000000000000815260040161076a906120b7565b60405180910390fd5b610797336107816003610e46565b8360405180602001604052806000815250610e54565b6107a16003610fea565b6107cf33600460009054906101000a900473ffffffffffffffffffffffffffffffffffffffff166001610cd9565b50565b6000600160008473ffffffffffffffffffffffffffffffffffffffff1673ffffffffffffffffffffffffffffffffffffffff16815260200190815260200160002060008373ffffffffffffffffffffffffffffffffffffffff1673ffffffffffffffffffffffffffffffffffffffff16815260200190815260200160002060009054906101000a900460ff16905092915050565b61086e610971565b73ffffffffffffffffffffffffffffffffffffffff168573ffffffffffffffffffffffffffffffffffffffff1614806108b457506108b3856108ae610971565b6107d2565b5b6108f3576040517f08c379a00000000000000000000000000000000000000000000000000000000081526004016108ea90612097565b60405180910390fd5b6109008585858585611000565b5050505050565b60007f01ffc9a7000000000000000000000000000000000000000000000000000000007bffffffffffffffffffffffffffffffffffffffffffffffffffffffff1916827bffffffffffffffffffffffffffffffffffffffffffffffffffffffff1916149050919050565b600033905090565b81518351146109bd576040517f08c379a00000000000000000000000000000000000000000000000000000000081526004016109b490612177565b60405180910390fd5b600073ffffffffffffffffffffffffffffffffffffffff168473ffffffffffffffffffffffffffffffffffffffff161415610a2d576040517f08c379a0000000000000000000000000000000000000000000000000000000008152600401610a24906120d7565b60405180910390fd5b6000610a37610971565b9050610a47818787878787611282565b60005b8451811015610c44576000858281518110610a8e577f4e487b7100000000000000000000000000000000000000000000000000000000600052603260045260246000fd5b602002602001015190506000858381518110610ad3577f4e487b7100000000000000000000000000000000000000000000000000000000600052603260045260246000fd5b60200260200101519050600080600084815260200190815260200160002060008b73ffffffffffffffffffffffffffffffffffffffff1673ffffffffffffffffffffffffffffffffffffffff16815260200190815260200160002054905081811015610b74576040517f08c379a0000000000000000000000000000000000000000000000000000000008152600401610b6b90612117565b60405180910390fd5b81810360008085815260200190815260200160002060008c73ffffffffffffffffffffffffffffffffffffffff1673ffffffffffffffffffffffffffffffffffffffff168152602001908152602001600020819055508160008085815260200190815260200160002060008b73ffffffffffffffffffffffffffffffffffffffff1673ffffffffffffffffffffffffffffffffffffffff1681526020019081526020016000206000828254610c29919061231a565b9250508190555050505080610c3d90612489565b9050610a4a565b508473ffffffffffffffffffffffffffffffffffffffff168673ffffffffffffffffffffffffffffffffffffffff168273ffffffffffffffffffffffffffffffffffffffff167f4a39dc06d4c0dbc64b70af90fd698a233a518aa5d07e595d983b8c0526c8f7fb8787604051610cbb929190611fc3565b60405180910390a4610cd181878787878761128a565b505050505050565b8173ffffffffffffffffffffffffffffffffffffffff168373ffffffffffffffffffffffffffffffffffffffff161415610d48576040517f08c379a0000000000000000000000000000000000000000000000000000000008152600401610d3f90612137565b60405180910390fd5b80600160008573ffffffffffffffffffffffffffffffffffffffff1673ffffffffffffffffffffffffffffffffffffffff16815260200190815260200160002060008473ffffffffffffffffffffffffffffffffffffffff1673ffffffffffffffffffffffffffffffffffffffff16815260200190815260200160002060006101000a81548160ff0219169083151502179055508173ffffffffffffffffffffffffffffffffffffffff168373ffffffffffffffffffffffffffffffffffffffff167f17307eab39ab6107e8899845ad3d59bd9653f200f220920489ca2b5937696c3183604051610e399190611ffa565b60405180910390a3505050565b600081600001549050919050565b600073ffffffffffffffffffffffffffffffffffffffff168473ffffffffffffffffffffffffffffffffffffffff161415610ec4576040517f08c379a0000000000000000000000000000000000000000000000000000000008152600401610ebb90612197565b60405180910390fd5b6000610ece610971565b9050610eef81600087610ee088611471565b610ee988611471565b87611282565b8260008086815260200190815260200160002060008773ffffffffffffffffffffffffffffffffffffffff1673ffffffffffffffffffffffffffffffffffffffff1681526020019081526020016000206000828254610f4e919061231a565b925050819055508473ffffffffffffffffffffffffffffffffffffffff16600073ffffffffffffffffffffffffffffffffffffffff168273ffffffffffffffffffffffffffffffffffffffff167fc3d58168c5ae7397731d063d5bbf3d657854427343f4c083240f7aacaa2d0f628787604051610fcc9291906121d2565b60405180910390a4610fe381600087878787611537565b5050505050565b6001816000016000828254019250508190555050565b600073ffffffffffffffffffffffffffffffffffffffff168473ffffffffffffffffffffffffffffffffffffffff161415611070576040517f08c379a0000000000000000000000000000000000000000000000000000000008152600401611067906120d7565b60405180910390fd5b600061107a610971565b905061109a81878761108b88611471565b61109488611471565b87611282565b600080600086815260200190815260200160002060008873ffffffffffffffffffffffffffffffffffffffff1673ffffffffffffffffffffffffffffffffffffffff16815260200190815260200160002054905083811015611131576040517f08c379a000000000000000000000000000000000000000000000000000000000815260040161112890612117565b60405180910390fd5b83810360008087815260200190815260200160002060008973ffffffffffffffffffffffffffffffffffffffff1673ffffffffffffffffffffffffffffffffffffffff168152602001908152602001600020819055508360008087815260200190815260200160002060008873ffffffffffffffffffffffffffffffffffffffff1673ffffffffffffffffffffffffffffffffffffffff16815260200190815260200160002060008282546111e6919061231a565b925050819055508573ffffffffffffffffffffffffffffffffffffffff168773ffffffffffffffffffffffffffffffffffffffff168373ffffffffffffffffffffffffffffffffffffffff167fc3d58168c5ae7397731d063d5bbf3d657854427343f4c083240f7aacaa2d0f6288886040516112639291906121d2565b60405180910390a4611279828888888888611537565b50505050505050565b505050505050565b6112a98473ffffffffffffffffffffffffffffffffffffffff1661171e565b15611469578373ffffffffffffffffffffffffffffffffffffffff1663bc197c8187878686866040518663ffffffff1660e01b81526004016112ef959493929190611edf565b602060405180830381600087803b15801561130957600080fd5b505af192505050801561133a57506040513d601f19601f820116820180604052508101906113379190611bc5565b60015b6113e05761134661255f565b806308c379a014156113a3575061135b61292d565b8061136657506113a5565b806040517f08c379a000000000000000000000000000000000000000000000000000000000815260040161139a9190612015565b60405180910390fd5b505b6040517f08c379a00000000000000000000000000000000000000000000000000000000081526004016113d790612037565b60405180910390fd5b63bc197c8160e01b7bffffffffffffffffffffffffffffffffffffffffffffffffffffffff1916817bffffffffffffffffffffffffffffffffffffffffffffffffffffffff191614611467576040517f08c379a000000000000000000000000000000000000000000000000000000000815260040161145e90612057565b60405180910390fd5b505b505050505050565b60606000600167ffffffffffffffff8111156114b6577f4e487b7100000000000000000000000000000000000000000000000000000000600052604160045260246000fd5b6040519080825280602002602001820160405280156114e45781602001602082028036833780820191505090505b5090508281600081518110611522577f4e487b7100000000000000000000000000000000000000000000000000000000600052603260045260246000fd5b60200260200101818152505080915050919050565b6115568473ffffffffffffffffffffffffffffffffffffffff1661171e565b15611716578373ffffffffffffffffffffffffffffffffffffffff1663f23a6e6187878686866040518663ffffffff1660e01b815260040161159c959493929190611f47565b602060405180830381600087803b1580156115b657600080fd5b505af19250505080156115e757506040513d601f19601f820116820180604052508101906115e49190611bc5565b60015b61168d576115f361255f565b806308c379a01415611650575061160861292d565b806116135750611652565b806040517f08c379a00000000000000000000000000000000000000000000000000000000081526004016116479190612015565b60405180910390fd5b505b6040517f08c379a000000000000000000000000000000000000000000000000000000000815260040161168490612037565b60405180910390fd5b63f23a6e6160e01b7bffffffffffffffffffffffffffffffffffffffffffffffffffffffff1916817bffffffffffffffffffffffffffffffffffffffffffffffffffffffff191614611714576040517f08c379a000000000000000000000000000000000000000000000000000000000815260040161170b90612057565b60405180910390fd5b505b505050505050565b600080823b905060008111915050919050565b600061174461173f84612220565b6121fb565b9050808382526020820190508285602086028201111561176357600080fd5b60005b8581101561179357816117798882611847565b845260208401935060208301925050600181019050611766565b5050509392505050565b60006117b06117ab8461224c565b6121fb565b905080838252602082019050828560208602820111156117cf57600080fd5b60005b858110156117ff57816117e58882611919565b8452602084019350602083019250506001810190506117d2565b5050509392505050565b600061181c61181784612278565b6121fb565b90508281526020810184848401111561183457600080fd5b61183f8482856123e4565b509392505050565b600081359050611856816129c3565b92915050565b600082601f83011261186d57600080fd5b813561187d848260208601611731565b91505092915050565b600082601f83011261189757600080fd5b81356118a784826020860161179d565b91505092915050565b6000813590506118bf816129da565b92915050565b6000813590506118d4816129f1565b92915050565b6000815190506118e9816129f1565b92915050565b600082601f83011261190057600080fd5b8135611910848260208601611809565b91505092915050565b60008135905061192881612a08565b92915050565b6000806040838503121561194157600080fd5b600061194f85828601611847565b925050602061196085828601611847565b9150509250929050565b600080600080600060a0868803121561198257600080fd5b600061199088828901611847565b95505060206119a188828901611847565b945050604086013567ffffffffffffffff8111156119be57600080fd5b6119ca88828901611886565b935050606086013567ffffffffffffffff8111156119e757600080fd5b6119f388828901611886565b925050608086013567ffffffffffffffff811115611a1057600080fd5b611a1c888289016118ef565b9150509295509295909350565b600080600080600060a08688031215611a4157600080fd5b6000611a4f88828901611847565b9550506020611a6088828901611847565b9450506040611a7188828901611919565b9350506060611a8288828901611919565b925050608086013567ffffffffffffffff811115611a9f57600080fd5b611aab888289016118ef565b9150509295509295909350565b60008060408385031215611acb57600080fd5b6000611ad985828601611847565b9250506020611aea858286016118b0565b9150509250929050565b60008060408385031215611b0757600080fd5b6000611b1585828601611847565b9250506020611b2685828601611919565b9150509250929050565b60008060408385031215611b4357600080fd5b600083013567ffffffffffffffff811115611b5d57600080fd5b611b698582860161185c565b925050602083013567ffffffffffffffff811115611b8657600080fd5b611b9285828601611886565b9150509250929050565b600060208284031215611bae57600080fd5b6000611bbc848285016118c5565b91505092915050565b600060208284031215611bd757600080fd5b6000611be5848285016118da565b91505092915050565b600060208284031215611c0057600080fd5b6000611c0e84828501611919565b91505092915050565b6000611c238383611ec1565b60208301905092915050565b611c3881612370565b82525050565b6000611c49826122b9565b611c5381856122e7565b9350611c5e836122a9565b8060005b83811015611c8f578151611c768882611c17565b9750611c81836122da565b925050600181019050611c62565b5085935050505092915050565b611ca581612382565b82525050565b6000611cb6826122c4565b611cc081856122f8565b9350611cd08185602086016123f3565b611cd981612581565b840191505092915050565b6000611cef826122cf565b611cf98185612309565b9350611d098185602086016123f3565b611d1281612581565b840191505092915050565b6000611d2a603483612309565b9150611d358261259f565b604082019050919050565b6000611d4d602883612309565b9150611d58826125ee565b604082019050919050565b6000611d70602b83612309565b9150611d7b8261263d565b604082019050919050565b6000611d93602983612309565b9150611d9e8261268c565b604082019050919050565b6000611db6601a83612309565b9150611dc1826126db565b602082019050919050565b6000611dd9602583612309565b9150611de482612704565b604082019050919050565b6000611dfc603283612309565b9150611e0782612753565b604082019050919050565b6000611e1f602a83612309565b9150611e2a826127a2565b604082019050919050565b6000611e42602983612309565b9150611e4d826127f1565b604082019050919050565b6000611e65602983612309565b9150611e7082612840565b604082019050919050565b6000611e88602883612309565b9150611e938261288f565b604082019050919050565b6000611eab602183612309565b9150611eb6826128de565b604082019050919050565b611eca816123da565b82525050565b611ed9816123da565b82525050565b600060a082019050611ef46000830188611c2f565b611f016020830187611c2f565b8181036040830152611f138186611c3e565b90508181036060830152611f278185611c3e565b90508181036080830152611f3b8184611cab565b90509695505050505050565b600060a082019050611f5c6000830188611c2f565b611f696020830187611c2f565b611f766040830186611ed0565b611f836060830185611ed0565b8181036080830152611f958184611cab565b90509695505050505050565b60006020820190508181036000830152611fbb8184611c3e565b905092915050565b60006040820190508181036000830152611fdd8185611c3e565b90508181036020830152611ff18184611c3e565b90509392505050565b600060208201905061200f6000830184611c9c565b92915050565b6000602082019050818103600083015261202f8184611ce4565b905092915050565b6000602082019050818103600083015261205081611d1d565b9050919050565b6000602082019050818103600083015261207081611d40565b9050919050565b6000602082019050818103600083015261209081611d63565b9050919050565b600060208201905081810360008301526120b081611d86565b9050919050565b600060208201905081810360008301526120d081611da9565b9050919050565b600060208201905081810360008301526120f081611dcc565b9050919050565b6000602082019050818103600083015261211081611def565b9050919050565b6000602082019050818103600083015261213081611e12565b9050919050565b6000602082019050818103600083015261215081611e35565b9050919050565b6000602082019050818103600083015261217081611e58565b9050919050565b6000602082019050818103600083015261219081611e7b565b9050919050565b600060208201905081810360008301526121b081611e9e565b9050919050565b60006020820190506121cc6000830184611ed0565b92915050565b60006040820190506121e76000830185611ed0565b6121f46020830184611ed0565b9392505050565b6000612205612216565b90506122118282612458565b919050565b6000604051905090565b600067ffffffffffffffff82111561223b5761223a612530565b5b602082029050602081019050919050565b600067ffffffffffffffff82111561226757612266612530565b5b602082029050602081019050919050565b600067ffffffffffffffff82111561229357612292612530565b5b61229c82612581565b9050602081019050919050565b6000819050602082019050919050565b600081519050919050565b600081519050919050565b600081519050919050565b6000602082019050919050565b600082825260208201905092915050565b600082825260208201905092915050565b600082825260208201905092915050565b6000612325826123da565b9150612330836123da565b9250827fffffffffffffffffffffffffffffffffffffffffffffffffffffffffffffffff03821115612365576123646124d2565b5b828201905092915050565b600061237b826123ba565b9050919050565b60008115159050919050565b60007fffffffff0000000000000000000000000000000000000000000000000000000082169050919050565b600073ffffffffffffffffffffffffffffffffffffffff82169050919050565b6000819050919050565b82818337600083830152505050565b60005b838110156124115780820151818401526020810190506123f6565b83811115612420576000848401525b50505050565b6000600282049050600182168061243e57607f821691505b6020821081141561245257612451612501565b5b50919050565b61246182612581565b810181811067ffffffffffffffff821117156124805761247f612530565b5b80604052505050565b6000612494826123da565b91507fffffffffffffffffffffffffffffffffffffffffffffffffffffffffffffffff8214156124c7576124c66124d2565b5b600182019050919050565b7f4e487b7100000000000000000000000000000000000000000000000000000000600052601160045260246000fd5b7f4e487b7100000000000000000000000000000000000000000000000000000000600052602260045260246000fd5b7f4e487b7100000000000000000000000000000000000000000000000000000000600052604160045260246000fd5b600060033d111561257e5760046000803e61257b600051612592565b90505b90565b6000601f19601f8301169050919050565b60008160e01c9050919050565b7f455243313135353a207472616e7366657220746f206e6f6e204552433131353560008201527f526563656976657220696d706c656d656e746572000000000000000000000000602082015250565b7f455243313135353a204552433131353552656365697665722072656a6563746560008201527f6420746f6b656e73000000000000000000000000000000000000000000000000602082015250565b7f455243313135353a2062616c616e636520717565727920666f7220746865207a60008201527f65726f2061646472657373000000000000000000000000000000000000000000602082015250565b7f455243313135353a2063616c6c6572206973206e6f74206f776e6572206e6f7260008201527f20617070726f7665640000000000000000000000000000000000000000000000602082015250565b7f4f6e6c79204f776e65722063616e206d696e7420746f6b656e73000000000000600082015250565b7f455243313135353a207472616e7366657220746f20746865207a65726f20616460008201527f6472657373000000000000000000000000000000000000000000000000000000602082015250565b7f455243313135353a207472616e736665722063616c6c6572206973206e6f742060008201527f6f776e6572206e6f7220617070726f7665640000000000000000000000000000602082015250565b7f455243313135353a20696e73756666696369656e742062616c616e636520666f60008201527f72207472616e7366657200000000000000000000000000000000000000000000602082015250565b7f455243313135353a2073657474696e6720617070726f76616c2073746174757360008201527f20666f722073656c660000000000000000000000000000000000000000000000602082015250565b7f455243313135353a206163636f756e747320616e6420696473206c656e67746860008201527f206d69736d617463680000000000000000000000000000000000000000000000602082015250565b7f455243313135353a2069647320616e6420616d6f756e7473206c656e6774682060008201527f6d69736d61746368000000000000000000000000000000000000000000000000602082015250565b7f455243313135353a206d696e7420746f20746865207a65726f2061646472657360008201527f7300000000000000000000000000000000000000000000000000000000000000602082015250565b600060443d101561293d576129c0565b612945612216565b60043d036004823e80513d602482011167ffffffffffffffff8211171561296d5750506129c0565b808201805167ffffffffffffffff81111561298b57505050506129c0565b80602083010160043d0385018111156129a85750505050506129c0565b6129b782602001850186612458565b82955050505050505b90565b6129cc81612370565b81146129d757600080fd5b50565b6129e381612382565b81146129ee57600080fd5b50565b6129fa8161238e565b8114612a0557600080fd5b50565b612a11816123da565b8114612a1c57600080fd5b5056fea26469706673582212206eef43bd92ed2261ec4be6e292b5265c7093ce8a36cdcfc2f479e41a4c3e74c064736f6c63430008040033",
  "linkReferences": {},
  "deployedLinkReferences": {}
}